{
  "_format": "hh-sol-artifact-1",
  "contractName": "IntelPool",
  "sourceName": "contracts/IntelPool.sol",
  "abi": [
    {
      "inputs": [
        {
          "internalType": "address",
          "name": "_currency",
          "type": "address"
        },
        {
          "internalType": "address",
          "name": "_investigator",
          "type": "address"
        },
        {
          "internalType": "uint256",
          "name": "_threshold",
          "type": "uint256"
        },
        {
          "internalType": "uint256",
          "name": "_minContributionForDecrypt",
          "type": "uint256"
        },
        {
          "internalType": "uint256",
          "name": "_deadline",
          "type": "uint256"
        },
        {
          "internalType": "bytes",
          "name": "_ciphertext",
          "type": "bytes"
        }
      ],
      "stateMutability": "nonpayable",
      "type": "constructor"
    },
    {
      "anonymous": false,
      "inputs": [
        {
          "indexed": true,
          "internalType": "address",
          "name": "contributor",
          "type": "address"
        },
        {
          "indexed": false,
          "internalType": "uint256",
          "name": "amount",
          "type": "uint256"
        },
        {
          "indexed": false,
          "internalType": "uint256",
          "name": "newTotal",
          "type": "uint256"
        }
      ],
      "name": "Contributed",
      "type": "event"
    },
    {
      "anonymous": false,
      "inputs": [
        {
          "indexed": false,
          "internalType": "uint256",
          "name": "totalRaised",
          "type": "uint256"
        }
      ],
      "name": "Unlocked",
      "type": "event"
    },
    {
      "anonymous": false,
      "inputs": [
        {
          "indexed": true,
          "internalType": "address",
          "name": "investigator",
          "type": "address"
        },
        {
          "indexed": false,
          "internalType": "uint256",
          "name": "amount",
          "type": "uint256"
        }
      ],
      "name": "Withdrawn",
      "type": "event"
    },
    {
      "inputs": [
        {
          "internalType": "address",
          "name": "contributor",
          "type": "address"
        }
      ],
      "name": "canDecrypt",
      "outputs": [
        {
          "internalType": "bool",
          "name": "",
          "type": "bool"
        }
      ],
      "stateMutability": "view",
      "type": "function"
    },
    {
      "inputs": [],
      "name": "ciphertext",
      "outputs": [
        {
          "internalType": "bytes",
          "name": "",
          "type": "bytes"
        }
      ],
      "stateMutability": "view",
      "type": "function"
    },
    {
      "inputs": [
        {
          "internalType": "uint256",
          "name": "amount",
          "type": "uint256"
        }
      ],
      "name": "contribute",
      "outputs": [],
      "stateMutability": "nonpayable",
      "type": "function"
    },
    {
      "inputs": [
        {
          "internalType": "address",
          "name": "contributor",
          "type": "address"
        }
      ],
      "name": "contributionOf",
      "outputs": [
        {
          "internalType": "uint256",
          "name": "",
          "type": "uint256"
        }
      ],
      "stateMutability": "view",
      "type": "function"
    },
    {
      "inputs": [],
      "name": "currency",
      "outputs": [
        {
          "internalType": "contract IERC20",
          "name": "",
          "type": "address"
        }
      ],
      "stateMutability": "view",
      "type": "function"
    },
    {
      "inputs": [],
      "name": "currencyDecimals",
      "outputs": [
        {
          "internalType": "uint8",
          "name": "",
          "type": "uint8"
        }
      ],
      "stateMutability": "view",
      "type": "function"
    },
    {
      "inputs": [],
      "name": "deadline",
      "outputs": [
        {
          "internalType": "uint256",
          "name": "",
          "type": "uint256"
        }
      ],
      "stateMutability": "view",
      "type": "function"
    },
    {
      "inputs": [],
      "name": "investigator",
      "outputs": [
        {
          "internalType": "address",
          "name": "",
          "type": "address"
        }
      ],
      "stateMutability": "view",
      "type": "function"
    },
    {
      "inputs": [],
      "name": "isUnlocked",
      "outputs": [
        {
          "internalType": "bool",
          "name": "",
          "type": "bool"
        }
      ],
      "stateMutability": "view",
      "type": "function"
    },
    {
      "inputs": [],
      "name": "minContributionForDecrypt",
      "outputs": [
        {
          "internalType": "uint256",
          "name": "",
          "type": "uint256"
        }
      ],
      "stateMutability": "view",
      "type": "function"
    },
    {
      "inputs": [],
      "name": "threshold",
      "outputs": [
        {
          "internalType": "uint256",
          "name": "",
          "type": "uint256"
        }
      ],
      "stateMutability": "view",
      "type": "function"
    },
    {
      "inputs": [],
      "name": "totalContributions",
      "outputs": [
        {
          "internalType": "uint256",
          "name": "",
          "type": "uint256"
        }
      ],
      "stateMutability": "view",
      "type": "function"
    },
    {
      "inputs": [],
      "name": "unlocked",
      "outputs": [
        {
          "internalType": "bool",
          "name": "",
          "type": "bool"
        }
      ],
      "stateMutability": "view",
      "type": "function"
    },
    {
      "inputs": [],
      "name": "withdraw",
      "outputs": [],
      "stateMutability": "nonpayable",
      "type": "function"
    }
  ],
  "bytecode": "0x6101406040523480156200001257600080fd5b5060405162001072380380620010728339810160408190526200003591620002aa565b6001600160a01b038616620000855760405162461bcd60e51b815260206004820152601160248201527018dd5c9c995b98de481c995c5d5a5c9959607a1b60448201526064015b60405180910390fd5b6001600160a01b038516620000dd5760405162461bcd60e51b815260206004820152601560248201527f696e76657374696761746f72207265717569726564000000000000000000000060448201526064016200007c565b600083116200012f5760405162461bcd60e51b815260206004820152601960248201527f6d696e20636f6e747269627574696f6e2072657175697265640000000000000060448201526064016200007c565b428211620001745760405162461bcd60e51b8152602060048201526011602482015270191958591b1a5b99481c995c5d5a5c9959607a1b60448201526064016200007c565b6000815111620001c75760405162461bcd60e51b815260206004820152601360248201527f636970686572746578742072657175697265640000000000000000000000000060448201526064016200007c565b6001600160a01b03861660808190526040805163313ce56760e01b8152905163313ce567916004808201926020929091908290030181865afa15801562000212573d6000803e3d6000fd5b505050506040513d601f19601f82011682018060405250810190620002389190620003c1565b60ff1660a0526001600160a01b03851660c05260e084905261010083905261012082905260006200026a82826200047c565b5050505050505062000548565b80516001600160a01b03811681146200028f57600080fd5b919050565b634e487b7160e01b600052604160045260246000fd5b60008060008060008060c08789031215620002c457600080fd5b620002cf8762000277565b95506020620002e081890162000277565b604089015160608a015160808b015160a08c0151939950919750955093506001600160401b03808211156200031457600080fd5b818a0191508a601f8301126200032957600080fd5b8151818111156200033e576200033e62000294565b604051601f8201601f19908116603f0116810190838211818310171562000369576200036962000294565b816040528281528d868487010111156200038257600080fd5b600093505b82841015620003a6578484018601518185018701529285019262000387565b60008684830101528096505050505050509295509295509295565b600060208284031215620003d457600080fd5b815160ff81168114620003e657600080fd5b9392505050565b600181811c908216806200040257607f821691505b6020821081036200042357634e487b7160e01b600052602260045260246000fd5b50919050565b601f8211156200047757600081815260208120601f850160051c81016020861015620004525750805b601f850160051c820191505b8181101562000473578281556001016200045e565b5050505b505050565b81516001600160401b0381111562000498576200049862000294565b620004b081620004a98454620003ed565b8462000429565b602080601f831160018114620004e85760008415620004cf5750858301515b600019600386901b1c1916600185901b17855562000473565b600085815260208120601f198616915b828110156200051957888601518255948401946001909101908401620004f8565b5085821015620005385787850151600019600388901b60f8161c191681555b5050505050600190811b01905550565b60805160a05160c05160e0516101005161012051610a9b620005d76000396000818161011c01526106fb01526000818161029301526102e001526000818161016401526108c50152600081816101f101528181610313015281816104a40152610588015260006101ad01526000818161026c015281816103d2015281816104d6015261077e0152610a9b6000f3fe608060405234801561001057600080fd5b50600436106100ea5760003560e01c80637624388e1161008c578063c1cbbca711610066578063c1cbbca71461022b578063d7805ece1461023e578063e5a6b10f14610267578063f2615e321461028e57600080fd5b80637624388e146101a85780638380edb7146101e1578063b84a71cb146101ec57600080fd5b80633ccfd60b116100c85780633ccfd60b1461015557806342cde4e81461015f5780634e05199c146101865780636a5e26501461019b57600080fd5b8063174c7100146100ef57806329dcb0cf1461011757806337c089231461014c575b600080fd5b6101026100fd366004610938565b6102b5565b60405190151581526020015b60405180910390f35b61013e7f000000000000000000000000000000000000000000000000000000000000000081565b60405190815260200161010e565b61013e60015481565b61015d610308565b005b61013e7f000000000000000000000000000000000000000000000000000000000000000081565b61018e6105ed565b60405161010e9190610968565b6002546101029060ff1681565b6101cf7f000000000000000000000000000000000000000000000000000000000000000081565b60405160ff909116815260200161010e565b60025460ff16610102565b6102137f000000000000000000000000000000000000000000000000000000000000000081565b6040516001600160a01b03909116815260200161010e565b61015d6102393660046109b6565b61067b565b61013e61024c366004610938565b6001600160a01b031660009081526003602052604090205490565b6102137f000000000000000000000000000000000000000000000000000000000000000081565b61013e7f000000000000000000000000000000000000000000000000000000000000000081565b60025460009060ff16801561030257506001600160a01b0382166000908152600360205260409020547f000000000000000000000000000000000000000000000000000000000000000011155b92915050565b336001600160a01b037f000000000000000000000000000000000000000000000000000000000000000016146103795760405162461bcd60e51b815260206004820152601160248201527037b7363c9034b73b32b9ba34b3b0ba37b960791b60448201526064015b60405180910390fd5b60025460ff166103ba5760405162461bcd60e51b815260206004820152600c60248201526b1b9bdd081d5b9b1bd8dad95960a21b6044820152606401610370565b6040516370a0823160e01b81523060048201526000907f00000000000000000000000000000000000000000000000000000000000000006001600160a01b0316906370a0823190602401602060405180830381865afa158015610421573d6000803e3d6000fd5b505050506040513d601f19601f8201168201806040525081019061044591906109cf565b90506000811161048d5760405162461bcd60e51b81526020600482015260136024820152726e6f7468696e6720746f20776974686472617760681b6044820152606401610370565b60405163a9059cbb60e01b81526001600160a01b037f000000000000000000000000000000000000000000000000000000000000000081166004830152602482018390526000917f00000000000000000000000000000000000000000000000000000000000000009091169063a9059cbb906044016020604051808303816000875af1158015610521573d6000803e3d6000fd5b505050506040513d601f19601f8201168201806040525081019061054591906109e8565b9050806105865760405162461bcd60e51b815260206004820152600f60248201526e1dda5d1a191c985dc819985a5b1959608a1b6044820152606401610370565b7f00000000000000000000000000000000000000000000000000000000000000006001600160a01b03167f7084f5476618d8e60b11ef0d7d3f06914655adb8793e28ff7f018d4c76d505d5836040516105e191815260200190565b60405180910390a25050565b600080546105fa90610a0a565b80601f016020809104026020016040519081016040528092919081815260200182805461062690610a0a565b80156106735780601f1061064857610100808354040283529160200191610673565b820191906000526020600020905b81548152906001019060200180831161065657829003601f168201915b505050505081565b60025460ff16156106be5760405162461bcd60e51b815260206004820152600d60248201526c1c1bdbdb081d5b9b1bd8dad959609a1b6044820152606401610370565b600081116106f95760405162461bcd60e51b81526020600482015260086024820152676e6f2076616c756560c01b6044820152606401610370565b7f00000000000000000000000000000000000000000000000000000000000000004211156107595760405162461bcd60e51b815260206004820152600d60248201526c7061737420646561646c696e6560981b6044820152606401610370565b6040516323b872dd60e01b8152336004820152306024820152604481018290526000907f00000000000000000000000000000000000000000000000000000000000000006001600160a01b0316906323b872dd906064016020604051808303816000875af11580156107cf573d6000803e3d6000fd5b505050506040513d601f19601f820116820180604052508101906107f391906109e8565b9050806108345760405162461bcd60e51b815260206004820152600f60248201526e1d1c985b9cd9995c8819985a5b1959608a1b6044820152606401610370565b3360009081526003602052604081208054849290610853908490610a44565b92505081905550816001600082825461086c9190610a44565b909155505060015460405133917ffa35a310d7113dddce1c275da946348e9aaebf9050b00b372033c4d84b0bd6eb916108ad91868252602082015260400190565b60405180910390a260025460ff161580156108ea57507f000000000000000000000000000000000000000000000000000000000000000060015410155b15610934576002805460ff19166001908117909155546040519081527ff27b6ce5b2f5e68ddb2fd95a8a909d4ecf1daaac270935fff052feacb24f18429060200160405180910390a15b5050565b60006020828403121561094a57600080fd5b81356001600160a01b038116811461096157600080fd5b9392505050565b600060208083528351808285015260005b8181101561099557858101830151858201604001528201610979565b506000604082860101526040601f19601f8301168501019250505092915050565b6000602082840312156109c857600080fd5b5035919050565b6000602082840312156109e157600080fd5b5051919050565b6000602082840312156109fa57600080fd5b8151801515811461096157600080fd5b600181811c90821680610a1e57607f821691505b602082108103610a3e57634e487b7160e01b600052602260045260246000fd5b50919050565b8082018082111561030257634e487b7160e01b600052601160045260246000fdfea264697066735822122081e3212f1606b0061eaaf11a225ca35ec89a122dccb30fe971baa075e616bbd664736f6c63430008150033",
  "linkReferences": {},
  "deployedLinkReferences": {}
}